{
  "contractName": "ProductFactory",
  "abi": [
    {
      "anonymous": false,
      "inputs": [
        {
          "indexed": false,
          "internalType": "string",
          "name": "name",
          "type": "string"
        },
        {
          "indexed": false,
          "internalType": "uint256",
          "name": "productId",
          "type": "uint256"
        }
      ],
      "name": "NewProduct",
      "type": "event"
    },
    {
      "constant": true,
      "inputs": [
        {
          "internalType": "uint256",
          "name": "",
          "type": "uint256"
        }
      ],
      "name": "products",
      "outputs": [
        {
          "internalType": "string",
          "name": "name",
          "type": "string"
        },
        {
          "internalType": "uint256",
          "name": "uniqueId",
          "type": "uint256"
        },
        {
          "internalType": "string",
          "name": "metaData",
          "type": "string"
        },
        {
          "internalType": "bool",
          "name": "isProductSold",
          "type": "bool"
        }
      ],
      "payable": false,
      "stateMutability": "view",
      "type": "function"
    },
    {
      "constant": true,
      "inputs": [
        {
          "internalType": "uint256",
          "name": "",
          "type": "uint256"
        }
      ],
      "name": "uniqueIdToProductId",
      "outputs": [
        {
          "internalType": "uint256",
          "name": "",
          "type": "uint256"
        }
      ],
      "payable": false,
      "stateMutability": "view",
      "type": "function"
    },
    {
      "constant": false,
      "inputs": [
        {
          "internalType": "string",
          "name": "_name",
          "type": "string"
        },
        {
          "internalType": "string",
          "name": "_metaData",
          "type": "string"
        }
      ],
      "name": "addProduct",
      "outputs": [],
      "payable": false,
      "stateMutability": "nonpayable",
      "type": "function"
    },
    {
      "constant": false,
      "inputs": [
        {
          "internalType": "uint256",
          "name": "_uniqueId",
          "type": "uint256"
        }
      ],
      "name": "sellProduct",
      "outputs": [],
      "payable": false,
      "stateMutability": "nonpayable",
      "type": "function"
    },
    {
      "constant": true,
      "inputs": [
        {
          "internalType": "uint256",
          "name": "_uniqueId",
          "type": "uint256"
        }
      ],
      "name": "verifyProduct",
      "outputs": [
        {
          "internalType": "bool",
          "name": "",
          "type": "bool"
        }
      ],
      "payable": false,
      "stateMutability": "view",
      "type": "function"
    }
  ],
  "bytecode": "0x60806040526402540be40060005534801561001957600080fd5b50610a6e806100296000396000f3fe608060405234801561001057600080fd5b50600436106100575760003560e01c80631c5f2af91461005c578063492deb151461009e578063524e8462146100cc5780637acc0b2014610112578063ca2efb5514610237575b600080fd5b6100886004803603602081101561007257600080fd5b8101908080359060200190929190505050610389565b6040518082815260200191505060405180910390f35b6100ca600480360360208110156100b457600080fd5b81019080803590602001909291905050506103a1565b005b6100f8600480360360208110156100e257600080fd5b81019080803590602001909291905050506103ad565b604051808215151515815260200191505060405180910390f35b61013e6004803603602081101561012857600080fd5b810190808035906020019092919050505061056d565b60405180806020018581526020018060200184151515158152602001838103835287818151815260200191508051906020019080838360005b83811015610192578082015181840152602081019050610177565b50505050905090810190601f1680156101bf5780820380516001836020036101000a031916815260200191505b50838103825285818151815260200191508051906020019080838360005b838110156101f85780820151818401526020810190506101dd565b50505050905090810190601f1680156102255780820380516001836020036101000a031916815260200191505b50965050505050505060405180910390f35b6103876004803603604081101561024d57600080fd5b810190808035906020019064010000000081111561026a57600080fd5b82018360208201111561027c57600080fd5b8035906020019184600183028401116401000000008311171561029e57600080fd5b91908080601f016020809104026020016040519081016040528093929190818152602001838380828437600081840152601f19601f8201169050808301925050505050505091929192908035906020019064010000000081111561030157600080fd5b82018360208201111561031357600080fd5b8035906020019184600183028401116401000000008311171561033557600080fd5b91908080601f016020809104026020016040519081016040528093929190818152602001838380828437600081840152601f19601f8201169050808301925050505050505091929192905050506106e7565b005b60026020528060005260406000206000915090505481565b6103aa81610704565b50565b600080600260008481526020019081526020016000205490506103ce61096a565b600182815481106103db57fe5b9060005260206000209060040201604051806080016040529081600082018054600181600116156101000203166002900480601f01602080910402602001604051908101604052809291908181526020018280546001816001161561010002031660029004801561048d5780601f106104625761010080835404028352916020019161048d565b820191906000526020600020905b81548152906001019060200180831161047057829003601f168201915b5050505050815260200160018201548152602001600282018054600181600116156101000203166002900480601f0160208091040260200160405190810160405280929190818152602001828054600181600116156101000203166002900480156105395780601f1061050e57610100808354040283529160200191610539565b820191906000526020600020905b81548152906001019060200180831161051c57829003601f168201915b505050505081526020016003820160009054906101000a900460ff1615151515815250509050806060015192505050919050565b6001818154811061057a57fe5b9060005260206000209060040201600091509050806000018054600181600116156101000203166002900480601f0160208091040260200160405190810160405280929190818152602001828054600181600116156101000203166002900480156106265780601f106105fb57610100808354040283529160200191610626565b820191906000526020600020905b81548152906001019060200180831161060957829003601f168201915b505050505090806001015490806002018054600181600116156101000203166002900480601f0160208091040260200160405190810160405280929190818152602001828054600181600116156101000203166002900480156106ca5780601f1061069f576101008083540402835291602001916106ca565b820191906000526020600020905b8154815290600101906020018083116106ad57829003601f168201915b5050505050908060030160009054906101000a900460ff16905084565b60006106f283610756565b90506106ff8382846107e4565b505050565b600060026000838152602001908152602001600020549050600180828154811061072a57fe5b906000526020600020906004020160030160006101000a81548160ff0219169083151502179055505050565b600080826040516020018082805190602001908083835b60208310610790578051825260208201915060208101905060208303925061076d565b6001836020036101000a0380198251168184511680821785525050505050509050019150506040516020818303038152906040528051906020012060001c905060005481816107db57fe5b06915050919050565b6001604051806080016040528085815260200184815260200183815260200160001515815250908060018154018082558091505090600182039060005260206000209060040201600090919290919091506000820151816000019080519060200190610851929190610994565b50602082015181600101556040820151816002019080519060200190610878929190610994565b5060608201518160030160006101000a81548160ff0219169083151502179055505050506000600180805490500390508060026000858152602001908152602001600020819055507f2e165cec6f27aaa90f62be1d6ecb7f541fab93a61119352647e25eebbbd6674184846040518080602001838152602001828103825284818151815260200191508051906020019080838360005b8381101561092957808201518184015260208101905061090e565b50505050905090810190601f1680156109565780820380516001836020036101000a031916815260200191505b50935050505060405180910390a150505050565b60405180608001604052806060815260200160008152602001606081526020016000151581525090565b828054600181600116156101000203166002900490600052602060002090601f016020900481019282601f106109d557805160ff1916838001178555610a03565b82800160010185558215610a03579182015b82811115610a025782518255916020019190600101906109e7565b5b509050610a109190610a14565b5090565b610a3691905b80821115610a32576000816000905550600101610a1a565b5090565b9056fea265627a7a72315820b3d56f55be58733863430aad947e38405fcb78015b2660f917a83c589fac019f64736f6c63430005100032",
  "source": "// SPDX-License-Identifier: GPL-3.0\r\n\r\npragma solidity ^0.5.1;\r\n\r\n\r\ncontract ProductFactory {\r\n    \r\n    uint uniqueIdLength = 10 ** 10;\r\n\r\n    event NewProduct(string name, uint productId);\r\n    // event productSold\r\n\r\n    struct Product{\r\n        string name;\r\n        uint uniqueId;\r\n        string metaData;\r\n        bool isProductSold;\r\n    }\r\n\r\n    Product[] public products;\r\n\r\n    mapping (uint => uint) public uniqueIdToProductId;\r\n\r\n\r\n// Adding Product section\r\n\r\n    function _createProduct(string memory _name, uint _uniqueId, string memory _metaData) private {\r\n        //  storing index where new product is added in mapping\r\n        products.push(Product(_name,_uniqueId,_metaData, false));\r\n        uint productId = products.length - 1; // push gives us array length so -1 for index\r\n        uniqueIdToProductId[_uniqueId] = productId;\r\n        emit NewProduct(_name,_uniqueId);\r\n\r\n    }\r\n\r\n    function _generateUniqueId(string memory _temp) private view returns ( uint ){\r\n        uint random = uint(keccak256(abi.encodePacked(_temp)));\r\n        return random % uniqueIdLength;\r\n    }\r\n\r\n    function addProduct(string memory _name,string memory _metaData) public {\r\n        uint Id = _generateUniqueId(_name);\r\n        _createProduct(_name, Id, _metaData);\r\n    }\r\n\r\n\r\n// Selling Product Section\r\n\r\n    function _sellProduct(uint _uniqueId) private {\r\n        uint _retrieveProductId = uniqueIdToProductId[_uniqueId];\r\n        products[_retrieveProductId].isProductSold = true;\r\n        // emit sell product event\r\n    }\r\n\r\n    function sellProduct(uint _uniqueId) public {\r\n        _sellProduct(_uniqueId);\r\n    }\r\n\r\n\r\n// Product Verify Section \r\n    \r\n    function verifyProduct(uint _uniqueId) public view returns (bool){\r\n        //condition to be added if product does not exist in storage\r\n        uint _retrieveProductId = uniqueIdToProductId[_uniqueId];\r\n        Product memory _product = products[_retrieveProductId];\r\n        return _product.isProductSold;\r\n    }\r\n}",
  "sourcePath": "D:\\Flutter\\Project Workspace\\New test workspace\\contracts\\productFactory.sol",
  "compiler": {
    "name": "solc",
    "version": "0.5.16+commit.9c3226ce.Emscripten.clang"
  },
  "schemaVersion": "3.4.13",
  "updatedAt": "2023-05-29T19:03:59.354Z",
  "networkType": "ethereum",
  "devdoc": {
    "methods": {}
  },
  "userdoc": {
    "methods": {}
  }
}